{
  "contractName": "Crowdfunding",
  "abi": [
    {
      "inputs": [
        {
          "internalType": "string",
          "name": "",
          "type": "string"
        }
      ],
      "name": "campaignMongoId",
      "outputs": [
        {
          "internalType": "uint256",
          "name": "",
          "type": "uint256"
        }
      ],
      "stateMutability": "view",
      "type": "function",
      "constant": true
    },
    {
      "inputs": [
        {
          "internalType": "uint256",
          "name": "",
          "type": "uint256"
        }
      ],
      "name": "campaigns",
      "outputs": [
        {
          "internalType": "address payable",
          "name": "recipient",
          "type": "address"
        },
        {
          "internalType": "uint256",
          "name": "targetAmount",
          "type": "uint256"
        },
        {
          "internalType": "uint256",
          "name": "deadline",
          "type": "uint256"
        },
        {
          "internalType": "uint256",
          "name": "totalRaised",
          "type": "uint256"
        },
        {
          "internalType": "bool",
          "name": "completed",
          "type": "bool"
        },
        {
          "internalType": "uint256",
          "name": "numberOfContributors",
          "type": "uint256"
        }
      ],
      "stateMutability": "view",
      "type": "function",
      "constant": true
    },
    {
      "inputs": [],
      "name": "nextCampaignId",
      "outputs": [
        {
          "internalType": "uint256",
          "name": "",
          "type": "uint256"
        }
      ],
      "stateMutability": "view",
      "type": "function",
      "constant": true
    },
    {
      "inputs": [
        {
          "internalType": "string",
          "name": "mongoId",
          "type": "string"
        },
        {
          "internalType": "address payable",
          "name": "_recipient",
          "type": "address"
        },
        {
          "internalType": "uint256",
          "name": "_targetAmount",
          "type": "uint256"
        },
        {
          "internalType": "uint256",
          "name": "_deadline",
          "type": "uint256"
        },
        {
          "internalType": "uint256[]",
          "name": "milestoneDeadlines",
          "type": "uint256[]"
        },
        {
          "internalType": "uint256[]",
          "name": "milestoneCompletionPercentages",
          "type": "uint256[]"
        }
      ],
      "name": "createCampaign",
      "outputs": [],
      "stateMutability": "payable",
      "type": "function",
      "payable": true
    },
    {
      "inputs": [
        {
          "internalType": "string",
          "name": "mongoId",
          "type": "string"
        },
        {
          "internalType": "address payable",
          "name": "_sender",
          "type": "address"
        },
        {
          "internalType": "uint256",
          "name": "_value",
          "type": "uint256"
        }
      ],
      "name": "contributeToCampaign",
      "outputs": [],
      "stateMutability": "payable",
      "type": "function",
      "payable": true
    },
    {
      "inputs": [
        {
          "internalType": "string",
          "name": "mongoId",
          "type": "string"
        },
        {
          "internalType": "address",
          "name": "senderAddress",
          "type": "address"
        }
      ],
      "name": "getContributionAmount",
      "outputs": [
        {
          "internalType": "uint256",
          "name": "",
          "type": "uint256"
        }
      ],
      "stateMutability": "view",
      "type": "function",
      "constant": true
    },
    {
      "inputs": [
        {
          "internalType": "string",
          "name": "mongoId",
          "type": "string"
        }
      ],
      "name": "vote",
      "outputs": [],
      "stateMutability": "nonpayable",
      "type": "function"
    },
    {
      "inputs": [
        {
          "internalType": "string",
          "name": "mongoId",
          "type": "string"
        }
      ],
      "name": "isMajorityInFavor",
      "outputs": [
        {
          "internalType": "bool",
          "name": "",
          "type": "bool"
        }
      ],
      "stateMutability": "view",
      "type": "function",
      "constant": true
    },
    {
      "inputs": [
        {
          "internalType": "string",
          "name": "mongoId",
          "type": "string"
        }
      ],
      "name": "finalizeMilestoneAndDisburseFunds",
      "outputs": [],
      "stateMutability": "payable",
      "type": "function",
      "payable": true
    },
    {
      "inputs": [
        {
          "internalType": "string",
          "name": "mongoId",
          "type": "string"
        }
      ],
      "name": "getCampaignDetails",
      "outputs": [
        {
          "internalType": "address payable",
          "name": "recipient",
          "type": "address"
        },
        {
          "internalType": "uint256",
          "name": "targetAmount",
          "type": "uint256"
        },
        {
          "internalType": "uint256",
          "name": "deadline",
          "type": "uint256"
        },
        {
          "internalType": "uint256",
          "name": "totalRaised",
          "type": "uint256"
        },
        {
          "internalType": "bool",
          "name": "completed",
          "type": "bool"
        },
        {
          "internalType": "uint256",
          "name": "numberOfContributors",
          "type": "uint256"
        },
        {
          "components": [
            {
              "internalType": "uint256",
              "name": "deadline",
              "type": "uint256"
            },
            {
              "internalType": "uint256",
              "name": "completionPercentage",
              "type": "uint256"
            },
            {
              "internalType": "bool",
              "name": "reached",
              "type": "bool"
            }
          ],
          "internalType": "struct Crowdfunding.Milestone[]",
          "name": "milestones",
          "type": "tuple[]"
        }
      ],
      "stateMutability": "view",
      "type": "function",
      "constant": true
    }
  ],
  "bytecode": "0x608060405234801561001057600080fd5b50611ef1806100206000396000f3fe6080604052600436106100915760003560e01c806378f5a8e01161005957806378f5a8e01461018a5780637903a756146101a657806391b8ebe4146101d1578063999a340714610214578063fc36e15b1461025157610091565b8063141961bc1461009657806325405ef5146100d857806339f8bd671461011557806342d6f3911461013157806348369d331461016e575b600080fd5b3480156100a257600080fd5b506100bd60048036038101906100b891906110b8565b61027a565b6040516100cf96959493929190611150565b60405180910390f35b3480156100e457600080fd5b506100ff60048036038101906100fa91906112f7565b6102e3565b60405161010c9190611340565b60405180910390f35b61012f600480360381019061012a919061144f565b610434565b005b34801561013d57600080fd5b50610158600480360381019061015391906112f7565b6106ac565b6040516101659190611530565b60405180910390f35b6101886004803603810190610183919061154b565b6106da565b005b6101a4600480360381019061019f91906112f7565b610910565b005b3480156101b257600080fd5b506101bb610cb5565b6040516101c89190611530565b60405180910390f35b3480156101dd57600080fd5b506101f860048036038101906101f391906112f7565b610cbb565b60405161020b97969594939291906116c9565b60405180910390f35b34801561022057600080fd5b5061023b6004803603810190610236919061177d565b610df1565b6040516102489190611530565b60405180910390f35b34801561025d57600080fd5b50610278600480360381019061027391906112f7565b610e71565b005b60006020528060005260406000206000915090508060000160009054906101000a900473ffffffffffffffffffffffffffffffffffffffff16908060010154908060020154908060030154908060040160009054906101000a900460ff16908060080154905086565b6000806001836040516102f69190611853565b90815260200160405180910390205490506000805b6000808481526020019081526020016000206008015481101561040657600080600085815260200190815260200160002060060182815481106103515761035061186a565b5b9060005260206000200160009054906101000a900473ffffffffffffffffffffffffffffffffffffffff16905060008085815260200190815260200160002060070160008273ffffffffffffffffffffffffffffffffffffffff1673ffffffffffffffffffffffffffffffffffffffff16815260200190815260200160002060009054906101000a900460ff16156103f25782806103ee906118c8565b9350505b5080806103fe906118c8565b91505061030b565b506000808381526020019081526020016000206008015460028261042a9190611910565b1192505050919050565b60008411610477576040517f08c379a000000000000000000000000000000000000000000000000000000000815260040161046e906119ed565b60405180910390fd5b4283116104b9576040517f08c379a00000000000000000000000000000000000000000000000000000000081526004016104b090611a59565b60405180910390fd5b600080600060025481526020019081526020016000209050858160000160006101000a81548173ffffffffffffffffffffffffffffffffffffffff021916908373ffffffffffffffffffffffffffffffffffffffff1602179055508481600101819055508381600201819055506000816003018190555060008160040160006101000a81548160ff0219169083151502179055508151835114610591576040517f08c379a000000000000000000000000000000000000000000000000000000000815260040161058890611ac5565b60405180910390fd5b60005b8351811015610665578160090160405180606001604052808684815181106105bf576105be61186a565b5b602002602001015181526020018584815181106105df576105de61186a565b5b60200260200101518152602001600015158152509080600181540180825580915050600190039060005260206000209060030201600090919091909150600082015181600001556020820151816001015560408201518160020160006101000a81548160ff0219169083151502179055505050808061065d906118c8565b915050610594565b506002546001886040516106799190611853565b9081526020016040518091039020819055506002600081548092919061069e906118c8565b919050555050505050505050565b6001818051602081018201805184825260208301602085012081835280955050505050506000915090505481565b60006001846040516106ec9190611853565b9081526020016040518091039020549050600080828152602001908152602001600020600201544210610754576040517f08c379a000000000000000000000000000000000000000000000000000000000815260040161074b90611b31565b60405180910390fd5b60008082815260200190815260200160002060040160009054906101000a900460ff16156107b7576040517f08c379a00000000000000000000000000000000000000000000000000000000081526004016107ae90611bc3565b60405180910390fd5b6000806000838152602001908152602001600020905060008160050160008673ffffffffffffffffffffffffffffffffffffffff1673ffffffffffffffffffffffffffffffffffffffff16815260200190815260200160002054036108965780600601849080600181540180825580915050600190039060005260206000200160009091909190916101000a81548173ffffffffffffffffffffffffffffffffffffffff021916908373ffffffffffffffffffffffffffffffffffffffff160217905550806008016000815480929190610890906118c8565b91905055505b828160050160008673ffffffffffffffffffffffffffffffffffffffff1673ffffffffffffffffffffffffffffffffffffffff16815260200190815260200160002060008282546108e79190611be3565b92505081905550828160030160008282546109029190611be3565b925050819055505050505050565b60006001826040516109229190611853565b90815260200160405180910390205490506000808281526020019081526020016000206002015442101561098b576040517f08c379a000000000000000000000000000000000000000000000000000000000815260040161098290611cab565b60405180910390fd5b600080600083815260200190815260200160002090508060040160009054906101000a900460ff16156109f3576040517f08c379a00000000000000000000000000000000000000000000000000000000081526004016109ea90611d17565b60405180910390fd5b600081600101549050600082600301549050818110610b7a5760005b8360090180549050811015610b74576000846009018281548110610a3657610a3561186a565b5b906000526020600020906003020190508060020160009054906101000a900460ff16158015610a69575080600001544210155b15610b605760018160020160006101000a81548160ff021916908315150217905550610a94876102e3565b610ad3576040517f08c379a0000000000000000000000000000000000000000000000000000000008152600401610aca90611da9565b60405180910390fd5b60006064826001015486610ae79190611910565b610af19190611df8565b90508560000160009054906101000a900473ffffffffffffffffffffffffffffffffffffffff1673ffffffffffffffffffffffffffffffffffffffff166108fc829081150290604051600060405180830381858888f19350505050158015610b5d573d6000803e3d6000fd5b50505b508080610b6c906118c8565b915050610a0f565b50610c91565b60005b8360060180549050811015610c8f576000846006018281548110610ba457610ba361186a565b5b9060005260206000200160009054906101000a900473ffffffffffffffffffffffffffffffffffffffff16905060008560050160008373ffffffffffffffffffffffffffffffffffffffff1673ffffffffffffffffffffffffffffffffffffffff1681526020019081526020016000205490506000858583610c269190611910565b610c309190611df8565b90508273ffffffffffffffffffffffffffffffffffffffff166108fc829081150290604051600060405180830381858888f19350505050158015610c78573d6000803e3d6000fd5b505050508080610c87906118c8565b915050610b7d565b505b60018360040160006101000a81548160ff0219169083151502179055505050505050565b60025481565b60008060008060008060606000600189604051610cd89190611853565b9081526020016040518091039020549050600080600083815260200190815260200160002090508060000160009054906101000a900473ffffffffffffffffffffffffffffffffffffffff168160010154826002015483600301548460040160009054906101000a900460ff1685600801548660090180805480602002602001604051908101604052809291908181526020016000905b82821015610dd0578382906000526020600020906003020160405180606001604052908160008201548152602001600182015481526020016002820160009054906101000a900460ff16151515158152505081526020019060010190610d6f565b50505050905098509850985098509850985098505050919395979092949650565b600080600184604051610e049190611853565b908152602001604051809103902054905060008082815260200190815260200160002060050160008473ffffffffffffffffffffffffffffffffffffffff1673ffffffffffffffffffffffffffffffffffffffff1681526020019081526020016000205491505092915050565b6000600182604051610e839190611853565b9081526020016040518091039020549050600080600083815260200190815260200160002060050160003373ffffffffffffffffffffffffffffffffffffffff1673ffffffffffffffffffffffffffffffffffffffff1681526020019081526020016000205411610f29576040517f08c379a0000000000000000000000000000000000000000000000000000000008152600401610f2090611e9b565b60405180910390fd5b60008082815260200190815260200160002060070160003373ffffffffffffffffffffffffffffffffffffffff1673ffffffffffffffffffffffffffffffffffffffff16815260200190815260200160002060009054906101000a900460ff1615610ffe57600080600083815260200190815260200160002060070160003373ffffffffffffffffffffffffffffffffffffffff1673ffffffffffffffffffffffffffffffffffffffff16815260200190815260200160002060006101000a81548160ff02191690831515021790555061106a565b600160008083815260200190815260200160002060070160003373ffffffffffffffffffffffffffffffffffffffff1673ffffffffffffffffffffffffffffffffffffffff16815260200190815260200160002060006101000a81548160ff0219169083151502179055505b5050565b6000604051905090565b600080fd5b600080fd5b6000819050919050565b61109581611082565b81146110a057600080fd5b50565b6000813590506110b28161108c565b92915050565b6000602082840312156110ce576110cd611078565b5b60006110dc848285016110a3565b91505092915050565b600073ffffffffffffffffffffffffffffffffffffffff82169050919050565b6000611110826110e5565b9050919050565b61112081611105565b82525050565b61112f81611082565b82525050565b60008115159050919050565b61114a81611135565b82525050565b600060c0820190506111656000830189611117565b6111726020830188611126565b61117f6040830187611126565b61118c6060830186611126565b6111996080830185611141565b6111a660a0830184611126565b979650505050505050565b600080fd5b600080fd5b6000601f19601f8301169050919050565b7f4e487b7100000000000000000000000000000000000000000000000000000000600052604160045260246000fd5b611204826111bb565b810181811067ffffffffffffffff82111715611223576112226111cc565b5b80604052505050565b600061123661106e565b905061124282826111fb565b919050565b600067ffffffffffffffff821115611262576112616111cc565b5b61126b826111bb565b9050602081019050919050565b82818337600083830152505050565b600061129a61129584611247565b61122c565b9050828152602081018484840111156112b6576112b56111b6565b5b6112c1848285611278565b509392505050565b600082601f8301126112de576112dd6111b1565b5b81356112ee848260208601611287565b91505092915050565b60006020828403121561130d5761130c611078565b5b600082013567ffffffffffffffff81111561132b5761132a61107d565b5b611337848285016112c9565b91505092915050565b60006020820190506113556000830184611141565b92915050565b61136481611105565b811461136f57600080fd5b50565b6000813590506113818161135b565b92915050565b600067ffffffffffffffff8211156113a2576113a16111cc565b5b602082029050602081019050919050565b600080fd5b60006113cb6113c684611387565b61122c565b905080838252602082019050602084028301858111156113ee576113ed6113b3565b5b835b81811015611417578061140388826110a3565b8452602084019350506020810190506113f0565b5050509392505050565b600082601f830112611436576114356111b1565b5b81356114468482602086016113b8565b91505092915050565b60008060008060008060c0878903121561146c5761146b611078565b5b600087013567ffffffffffffffff81111561148a5761148961107d565b5b61149689828a016112c9565b96505060206114a789828a01611372565b95505060406114b889828a016110a3565b94505060606114c989828a016110a3565b935050608087013567ffffffffffffffff8111156114ea576114e961107d565b5b6114f689828a01611421565b92505060a087013567ffffffffffffffff8111156115175761151661107d565b5b61152389828a01611421565b9150509295509295509295565b60006020820190506115456000830184611126565b92915050565b60008060006060848603121561156457611563611078565b5b600084013567ffffffffffffffff8111156115825761158161107d565b5b61158e868287016112c9565b935050602061159f86828701611372565b92505060406115b0868287016110a3565b9150509250925092565b600081519050919050565b600082825260208201905092915050565b6000819050602082019050919050565b6115ef81611082565b82525050565b6115fe81611135565b82525050565b60608201600082015161161a60008501826115e6565b50602082015161162d60208501826115e6565b50604082015161164060408501826115f5565b50505050565b60006116528383611604565b60608301905092915050565b6000602082019050919050565b6000611676826115ba565b61168081856115c5565b935061168b836115d6565b8060005b838110156116bc5781516116a38882611646565b97506116ae8361165e565b92505060018101905061168f565b5085935050505092915050565b600060e0820190506116de600083018a611117565b6116eb6020830189611126565b6116f86040830188611126565b6117056060830187611126565b6117126080830186611141565b61171f60a0830185611126565b81810360c0830152611731818461166b565b905098975050505050505050565b600061174a826110e5565b9050919050565b61175a8161173f565b811461176557600080fd5b50565b60008135905061177781611751565b92915050565b6000806040838503121561179457611793611078565b5b600083013567ffffffffffffffff8111156117b2576117b161107d565b5b6117be858286016112c9565b92505060206117cf85828601611768565b9150509250929050565b600081519050919050565b600081905092915050565b60005b8381101561180d5780820151818401526020810190506117f2565b8381111561181c576000848401525b50505050565b600061182d826117d9565b61183781856117e4565b93506118478185602086016117ef565b80840191505092915050565b600061185f8284611822565b915081905092915050565b7f4e487b7100000000000000000000000000000000000000000000000000000000600052603260045260246000fd5b7f4e487b7100000000000000000000000000000000000000000000000000000000600052601160045260246000fd5b60006118d382611082565b91507fffffffffffffffffffffffffffffffffffffffffffffffffffffffffffffffff820361190557611904611899565b5b600182019050919050565b600061191b82611082565b915061192683611082565b9250817fffffffffffffffffffffffffffffffffffffffffffffffffffffffffffffffff048311821515161561195f5761195e611899565b5b828202905092915050565b600082825260208201905092915050565b7f54617267657420616d6f756e74206d757374206265206772656174657220746860008201527f616e207a65726f00000000000000000000000000000000000000000000000000602082015250565b60006119d760278361196a565b91506119e28261197b565b604082019050919050565b60006020820190508181036000830152611a06816119ca565b9050919050565b7f446561646c696e65206d75737420626520696e20746865206675747572650000600082015250565b6000611a43601e8361196a565b9150611a4e82611a0d565b602082019050919050565b60006020820190508181036000830152611a7281611a36565b9050919050565b7f4d69736d6174636820696e206d696c6573746f6e652064617461000000000000600082015250565b6000611aaf601a8361196a565b9150611aba82611a79565b602082019050919050565b60006020820190508181036000830152611ade81611aa2565b9050919050565b7f436f6e747269627574696f6e20706572696f642068617320656e646564000000600082015250565b6000611b1b601d8361196a565b9150611b2682611ae5565b602082019050919050565b60006020820190508181036000830152611b4a81611b0e565b9050919050565b7f43616d706169676e2068617320616c7265616479206265656e20636f6d706c6560008201527f7465640000000000000000000000000000000000000000000000000000000000602082015250565b6000611bad60238361196a565b9150611bb882611b51565b604082019050919050565b60006020820190508181036000830152611bdc81611ba0565b9050919050565b6000611bee82611082565b9150611bf983611082565b9250827fffffffffffffffffffffffffffffffffffffffffffffffffffffffffffffffff03821115611c2e57611c2d611899565b5b828201905092915050565b7f446561646c696e6520686173206e6f74206265656e207265616368656420796560008201527f7400000000000000000000000000000000000000000000000000000000000000602082015250565b6000611c9560218361196a565b9150611ca082611c39565b604082019050919050565b60006020820190508181036000830152611cc481611c88565b9050919050565b7f43616d706169676e20616c726561647920636f6d706c65746564000000000000600082015250565b6000611d01601a8361196a565b9150611d0c82611ccb565b602082019050919050565b60006020820190508181036000830152611d3081611cf4565b9050919050565b7f4d616a6f72697479206f662074686520636f6e7472696275746f72732061726560008201527f20756e6861707079207769746820746869732063616d706169676e0000000000602082015250565b6000611d93603b8361196a565b9150611d9e82611d37565b604082019050919050565b60006020820190508181036000830152611dc281611d86565b9050919050565b7f4e487b7100000000000000000000000000000000000000000000000000000000600052601260045260246000fd5b6000611e0382611082565b9150611e0e83611082565b925082611e1e57611e1d611dc9565b5b828204905092915050565b7f596f75206d757374206265206120636f6e7472696275746f7220746f20766f7460008201527f6500000000000000000000000000000000000000000000000000000000000000602082015250565b6000611e8560218361196a565b9150611e9082611e29565b604082019050919050565b60006020820190508181036000830152611eb481611e78565b905091905056fea2646970667358221220e56dbfdba0ad711028ce0f136c91cb1fdcc6f7b9f7a3f2f8e57f8d0f16ba155e64736f6c634300080d0033",
  "immutableReferences": {},
  "source": "// SPDX-License-Identifier: MIT\npragma solidity ^0.8.0;\n\ncontract Crowdfunding {\n  struct Milestone {\n    uint256 deadline;\n    uint256 completionPercentage;\n    bool reached;\n  }\n\n  struct Campaign {\n    address payable recipient;\n    uint256 targetAmount;\n    uint256 deadline;\n    uint256 totalRaised;\n    bool completed;\n    mapping(address => uint256) contributions;\n    address[] contributorAddresses;\n    mapping(address => bool) voted;\n    uint256 numberOfContributors;\n    Milestone[] milestones;\n  }\n\n  mapping(uint256 => Campaign) public campaigns;\n  mapping(string => uint256) public campaignMongoId;\n  uint256 public nextCampaignId;\n\n  function createCampaign(\n    string memory mongoId,\n    address payable _recipient,\n    uint256 _targetAmount,\n    uint256 _deadline,\n    uint256[] memory milestoneDeadlines,\n    uint256[] memory milestoneCompletionPercentages\n  ) public payable {\n    require(_targetAmount > 0, \"Target amount must be greater than zero\");\n    require(_deadline > block.timestamp, \"Deadline must be in the future\");\n\n    Campaign storage currentCampaign = campaigns[nextCampaignId];\n    currentCampaign.recipient = _recipient;\n    currentCampaign.targetAmount = _targetAmount;\n    currentCampaign.deadline = _deadline;\n    currentCampaign.totalRaised = 0;\n    currentCampaign.completed = false;\n\n    require(\n      milestoneDeadlines.length == milestoneCompletionPercentages.length,\n      \"Mismatch in milestone data\"\n    );\n\n    for (uint256 i = 0; i < milestoneDeadlines.length; i++) {\n      currentCampaign.milestones.push(\n        Milestone({\n          deadline: milestoneDeadlines[i],\n          completionPercentage: milestoneCompletionPercentages[i],\n          reached: false\n        })\n      );\n    }\n\n    campaignMongoId[mongoId] = nextCampaignId;\n    nextCampaignId++;\n  } \n\n  function contributeToCampaign(\n    string memory mongoId,\n    address payable _sender,\n    uint256 _value\n  ) public payable {\n    uint256 campaignId = campaignMongoId[mongoId];\n    require(\n      block.timestamp < campaigns[campaignId].deadline,\n      \"Contribution period has ended\"\n    );\n\n    require(\n      !campaigns[campaignId].completed,\n      \"Campaign has already been completed\"\n    );\n\n    Campaign storage currentCampaign = campaigns[campaignId];\n    if (currentCampaign.contributions[_sender] == 0) {\n      currentCampaign.contributorAddresses.push(_sender);\n      currentCampaign.numberOfContributors++;\n    }\n    currentCampaign.contributions[_sender] += _value;\n    currentCampaign.totalRaised += _value;\n  }\n\n  function getContributionAmount(\n    string memory mongoId,\n    address senderAddress\n  ) public view returns (uint256) {\n    uint256 campaignId = campaignMongoId[mongoId];\n    return campaigns[campaignId].contributions[senderAddress];\n  }\n\n  function vote(string memory mongoId) public {\n    uint256 campaignId = campaignMongoId[mongoId];\n    require(\n      campaigns[campaignId].contributions[msg.sender] > 0,\n      \"You must be a contributor to vote\"\n    );\n\n    if (campaigns[campaignId].voted[msg.sender]) {\n      campaigns[campaignId].voted[msg.sender] = false;\n    } else {\n      campaigns[campaignId].voted[msg.sender] = true;\n    }\n  }\n\n  function isMajorityInFavor(string memory mongoId) public view returns (bool) {\n    uint256 campaignId = campaignMongoId[mongoId];\n    uint256 votedContributorsCount = 0;\n\n    for (uint256 i = 0; i < campaigns[campaignId].numberOfContributors; i++) {\n      address contributor = campaigns[campaignId].contributorAddresses[i];\n      if (campaigns[campaignId].voted[contributor]) {\n        votedContributorsCount++;\n      }\n    }\n\n    return (votedContributorsCount * 2 >\n      campaigns[campaignId].numberOfContributors);\n  }\n\n  function finalizeMilestoneAndDisburseFunds(\n    string memory mongoId\n  ) public payable {\n    uint256 campaignId = campaignMongoId[mongoId];\n    require(\n      block.timestamp >= campaigns[campaignId].deadline,\n      \"Deadline has not been reached yet\"\n    );\n\n    Campaign storage currentCampaign = campaigns[campaignId];\n    require(!currentCampaign.completed, \"Campaign already completed\");\n\n    uint256 goalAmount = currentCampaign.targetAmount;\n    uint256 totalRaised = currentCampaign.totalRaised;\n\n    if (totalRaised >= goalAmount) {\n      for (uint256 i = 0; i < currentCampaign.milestones.length; i++) {\n        Milestone storage milestone = currentCampaign.milestones[i];\n        if (!milestone.reached && block.timestamp >= milestone.deadline) {\n          milestone.reached = true;\n          require(\n            isMajorityInFavor(mongoId),\n            \"Majority of the contributors are unhappy with this campaign\"\n          );\n          uint256 amountToTransfer = (goalAmount *\n            milestone.completionPercentage) / 100;\n          currentCampaign.recipient.transfer(amountToTransfer);\n        }\n      }\n    } else {\n      for (\n        uint256 i = 0;\n        i < currentCampaign.contributorAddresses.length;\n        i++\n      ) {\n        address contributor = currentCampaign.contributorAddresses[i];\n        uint256 contribution = currentCampaign.contributions[contributor];\n        uint256 refundAmount = (contribution * totalRaised) / goalAmount;\n        payable(contributor).transfer(refundAmount);\n      }\n    }\n\n    currentCampaign.completed = true;\n  }\n\n  function getCampaignDetails(\n    string memory mongoId\n  )\n    public\n    view\n    returns (\n      address payable recipient,\n      uint256 targetAmount,\n      uint256 deadline,\n      uint256 totalRaised,\n      bool completed,\n      uint256 numberOfContributors,\n      Milestone[] memory milestones\n    )\n  {\n    uint256 campaignId = campaignMongoId[mongoId];\n\n    Campaign storage currentCampaign = campaigns[campaignId];\n    return (\n      currentCampaign.recipient,\n      currentCampaign.targetAmount,\n      currentCampaign.deadline,\n      currentCampaign.totalRaised,\n      currentCampaign.completed,\n      currentCampaign.numberOfContributors,\n      currentCampaign.milestones\n    );\n  }\n}\n",
  "sourcePath": "/home/alvin/Projects/trustfunds/repo/trustfunds-api-sepolia/web3-trustfunds/contracts/Crowdfunding.sol",
  "compiler": {
    "name": "solc",
    "version": "0.8.13+commit.abaa5c0e.Emscripten.clang"
  },
  "schemaVersion": "3.4.16",
  "updatedAt": "2024-04-23T06:27:55.842Z",
  "networkType": "ethereum",
  "devdoc": {
    "kind": "dev",
    "methods": {},
    "version": 1
  },
  "userdoc": {
    "kind": "user",
    "methods": {},
    "version": 1
  }
}